{
  "_format": "hh-sol-artifact-1",
  "contractName": "CoinExERC721",
  "sourceName": "contracts/CoinExERC721.sol",
  "abi": [
    {
      "inputs": [
        {
          "internalType": "string",
          "name": "name",
          "type": "string"
        },
        {
          "internalType": "string",
          "name": "symbol",
          "type": "string"
        }
      ],
      "stateMutability": "nonpayable",
      "type": "constructor"
    },
    {
      "anonymous": false,
      "inputs": [
        {
          "indexed": true,
          "internalType": "address",
          "name": "owner",
          "type": "address"
        },
        {
          "indexed": true,
          "internalType": "address",
          "name": "approved",
          "type": "address"
        },
        {
          "indexed": true,
          "internalType": "uint256",
          "name": "tokenId",
          "type": "uint256"
        }
      ],
      "name": "Approval",
      "type": "event"
    },
    {
      "anonymous": false,
      "inputs": [
        {
          "indexed": true,
          "internalType": "address",
          "name": "owner",
          "type": "address"
        },
        {
          "indexed": true,
          "internalType": "address",
          "name": "operator",
          "type": "address"
        },
        {
          "indexed": false,
          "internalType": "bool",
          "name": "approved",
          "type": "bool"
        }
      ],
      "name": "ApprovalForAll",
      "type": "event"
    },
    {
      "anonymous": false,
      "inputs": [
        {
          "indexed": true,
          "internalType": "address",
          "name": "from",
          "type": "address"
        },
        {
          "indexed": true,
          "internalType": "address",
          "name": "to",
          "type": "address"
        },
        {
          "indexed": true,
          "internalType": "uint256",
          "name": "tokenId",
          "type": "uint256"
        }
      ],
      "name": "Transfer",
      "type": "event"
    },
    {
      "inputs": [
        {
          "internalType": "uint256",
          "name": "",
          "type": "uint256"
        }
      ],
      "name": "_dao_uris",
      "outputs": [
        {
          "internalType": "string",
          "name": "dao_wallet",
          "type": "string"
        },
        {
          "internalType": "string",
          "name": "dao_uri",
          "type": "string"
        },
        {
          "internalType": "string",
          "name": "finished",
          "type": "string"
        }
      ],
      "stateMutability": "view",
      "type": "function"
    },
    {
      "inputs": [
        {
          "internalType": "uint256",
          "name": "",
          "type": "uint256"
        }
      ],
      "name": "_ideas_uris",
      "outputs": [
        {
          "internalType": "uint256",
          "name": "goal_id",
          "type": "uint256"
        },
        {
          "internalType": "string",
          "name": "ideas_uri",
          "type": "string"
        }
      ],
      "stateMutability": "view",
      "type": "function"
    },
    {
      "inputs": [
        {
          "internalType": "uint256",
          "name": "",
          "type": "uint256"
        }
      ],
      "name": "all_goal_ideas_votes",
      "outputs": [
        {
          "internalType": "uint256",
          "name": "goal_id",
          "type": "uint256"
        },
        {
          "internalType": "uint256",
          "name": "ideas_id",
          "type": "uint256"
        },
        {
          "internalType": "string",
          "name": "wallet",
          "type": "string"
        }
      ],
      "stateMutability": "view",
      "type": "function"
    },
    {
      "inputs": [
        {
          "internalType": "address",
          "name": "to",
          "type": "address"
        },
        {
          "internalType": "uint256",
          "name": "tokenId",
          "type": "uint256"
        }
      ],
      "name": "approve",
      "outputs": [],
      "stateMutability": "nonpayable",
      "type": "function"
    },
    {
      "inputs": [
        {
          "internalType": "address",
          "name": "owner",
          "type": "address"
        }
      ],
      "name": "balanceOf",
      "outputs": [
        {
          "internalType": "uint256",
          "name": "",
          "type": "uint256"
        }
      ],
      "stateMutability": "view",
      "type": "function"
    },
    {
      "inputs": [
        {
          "internalType": "string",
          "name": "_dao_wallet",
          "type": "string"
        },
        {
          "internalType": "string",
          "name": "_dao_uri",
          "type": "string"
        }
      ],
      "name": "create_dao",
      "outputs": [
        {
          "internalType": "uint256",
          "name": "",
          "type": "uint256"
        }
      ],
      "stateMutability": "nonpayable",
      "type": "function"
    },
    {
      "inputs": [
        {
          "internalType": "string",
          "name": "_goal_uri",
          "type": "string"
        },
        {
          "internalType": "uint256",
          "name": "_dao_id",
          "type": "uint256"
        }
      ],
      "name": "create_goal",
      "outputs": [
        {
          "internalType": "uint256",
          "name": "",
          "type": "uint256"
        }
      ],
      "stateMutability": "nonpayable",
      "type": "function"
    },
    {
      "inputs": [
        {
          "internalType": "uint256",
          "name": "_goal_id",
          "type": "uint256"
        },
        {
          "internalType": "uint256",
          "name": "_ideas_id",
          "type": "uint256"
        },
        {
          "internalType": "string",
          "name": "_wallet",
          "type": "string"
        }
      ],
      "name": "create_goal_ideas_vote",
      "outputs": [
        {
          "internalType": "uint256",
          "name": "",
          "type": "uint256"
        }
      ],
      "stateMutability": "nonpayable",
      "type": "function"
    },
    {
      "inputs": [
        {
          "internalType": "string",
          "name": "_ideas_uri",
          "type": "string"
        },
        {
          "internalType": "uint256",
          "name": "_goal_id",
          "type": "uint256"
        }
      ],
      "name": "create_ideas",
      "outputs": [
        {
          "internalType": "uint256",
          "name": "",
          "type": "uint256"
        }
      ],
      "stateMutability": "nonpayable",
      "type": "function"
    },
    {
      "inputs": [],
      "name": "dao",
      "outputs": [
        {
          "internalType": "string[]",
          "name": "",
          "type": "string[]"
        }
      ],
      "stateMutability": "nonpayable",
      "type": "function"
    },
    {
      "inputs": [
        {
          "internalType": "uint256",
          "name": "_dao_id",
          "type": "uint256"
        }
      ],
      "name": "dao_uri",
      "outputs": [
        {
          "internalType": "string",
          "name": "",
          "type": "string"
        }
      ],
      "stateMutability": "view",
      "type": "function"
    },
    {
      "inputs": [
        {
          "internalType": "uint256",
          "name": "tokenId",
          "type": "uint256"
        }
      ],
      "name": "getApproved",
      "outputs": [
        {
          "internalType": "address",
          "name": "",
          "type": "address"
        }
      ],
      "stateMutability": "view",
      "type": "function"
    },
    {
      "inputs": [],
      "name": "get_all_daos",
      "outputs": [
        {
          "internalType": "string[]",
          "name": "",
          "type": "string[]"
        }
      ],
      "stateMutability": "view",
      "type": "function"
    },
    {
      "inputs": [],
      "name": "get_all_goals",
      "outputs": [
        {
          "internalType": "string[]",
          "name": "",
          "type": "string[]"
        }
      ],
      "stateMutability": "view",
      "type": "function"
    },
    {
      "inputs": [
        {
          "internalType": "uint256",
          "name": "_dao_id",
          "type": "uint256"
        }
      ],
      "name": "get_all_goals_by_dao_id",
      "outputs": [
        {
          "internalType": "string[]",
          "name": "",
          "type": "string[]"
        }
      ],
      "stateMutability": "view",
      "type": "function"
    },
    {
      "inputs": [],
      "name": "get_all_ideas",
      "outputs": [
        {
          "internalType": "string[]",
          "name": "",
          "type": "string[]"
        }
      ],
      "stateMutability": "view",
      "type": "function"
    },
    {
      "inputs": [
        {
          "internalType": "uint256",
          "name": "_goal_id",
          "type": "uint256"
        }
      ],
      "name": "get_all_ideas_by_goal_id",
      "outputs": [
        {
          "internalType": "string[]",
          "name": "",
          "type": "string[]"
        }
      ],
      "stateMutability": "view",
      "type": "function"
    },
    {
      "inputs": [
        {
          "internalType": "string",
          "name": "_goal_uri",
          "type": "string"
        }
      ],
      "name": "get_goal_id_by_goal_uri",
      "outputs": [
        {
          "internalType": "uint256",
          "name": "",
          "type": "uint256"
        }
      ],
      "stateMutability": "view",
      "type": "function"
    },
    {
      "inputs": [
        {
          "internalType": "string",
          "name": "_ideas_uri",
          "type": "string"
        }
      ],
      "name": "get_goal_id_from_ideas_uri",
      "outputs": [
        {
          "internalType": "uint256",
          "name": "",
          "type": "uint256"
        }
      ],
      "stateMutability": "view",
      "type": "function"
    },
    {
      "inputs": [
        {
          "internalType": "string",
          "name": "_ideas_uri",
          "type": "string"
        }
      ],
      "name": "get_ideas_id_by_ideas_uri",
      "outputs": [
        {
          "internalType": "uint256",
          "name": "",
          "type": "uint256"
        }
      ],
      "stateMutability": "view",
      "type": "function"
    },
    {
      "inputs": [
        {
          "internalType": "uint256",
          "name": "_goal_id",
          "type": "uint256"
        },
        {
          "internalType": "uint256",
          "name": "_ideas_id",
          "type": "uint256"
        }
      ],
      "name": "get_ideas_votes_from_goal",
      "outputs": [
        {
          "internalType": "string[]",
          "name": "",
          "type": "string[]"
        }
      ],
      "stateMutability": "view",
      "type": "function"
    },
    {
      "inputs": [
        {
          "internalType": "uint256",
          "name": "_goal_id",
          "type": "uint256"
        }
      ],
      "name": "goal_uri",
      "outputs": [
        {
          "internalType": "string",
          "name": "",
          "type": "string"
        }
      ],
      "stateMutability": "view",
      "type": "function"
    },
    {
      "inputs": [
        {
          "internalType": "uint256",
          "name": "_ideas_id",
          "type": "uint256"
        }
      ],
      "name": "ideas_uri",
      "outputs": [
        {
          "internalType": "string",
          "name": "",
          "type": "string"
        }
      ],
      "stateMutability": "view",
      "type": "function"
    },
    {
      "inputs": [
        {
          "internalType": "address",
          "name": "owner",
          "type": "address"
        },
        {
          "internalType": "address",
          "name": "operator",
          "type": "address"
        }
      ],
      "name": "isApprovedForAll",
      "outputs": [
        {
          "internalType": "bool",
          "name": "",
          "type": "bool"
        }
      ],
      "stateMutability": "view",
      "type": "function"
    },
    {
      "inputs": [],
      "name": "name",
      "outputs": [
        {
          "internalType": "string",
          "name": "",
          "type": "string"
        }
      ],
      "stateMutability": "view",
      "type": "function"
    },
    {
      "inputs": [],
      "name": "owner",
      "outputs": [
        {
          "internalType": "address",
          "name": "",
          "type": "address"
        }
      ],
      "stateMutability": "view",
      "type": "function"
    },
    {
      "inputs": [
        {
          "internalType": "uint256",
          "name": "tokenId",
          "type": "uint256"
        }
      ],
      "name": "ownerOf",
      "outputs": [
        {
          "internalType": "address",
          "name": "",
          "type": "address"
        }
      ],
      "stateMutability": "view",
      "type": "function"
    },
    {
      "inputs": [
        {
          "internalType": "address",
          "name": "from",
          "type": "address"
        },
        {
          "internalType": "address",
          "name": "to",
          "type": "address"
        },
        {
          "internalType": "uint256",
          "name": "tokenId",
          "type": "uint256"
        }
      ],
      "name": "safeTransferFrom",
      "outputs": [],
      "stateMutability": "nonpayable",
      "type": "function"
    },
    {
      "inputs": [
        {
          "internalType": "address",
          "name": "from",
          "type": "address"
        },
        {
          "internalType": "address",
          "name": "to",
          "type": "address"
        },
        {
          "internalType": "uint256",
          "name": "tokenId",
          "type": "uint256"
        },
        {
          "internalType": "bytes",
          "name": "_data",
          "type": "bytes"
        }
      ],
      "name": "safeTransferFrom",
      "outputs": [],
      "stateMutability": "nonpayable",
      "type": "function"
    },
    {
      "inputs": [
        {
          "internalType": "address",
          "name": "operator",
          "type": "address"
        },
        {
          "internalType": "bool",
          "name": "approved",
          "type": "bool"
        }
      ],
      "name": "setApprovalForAll",
      "outputs": [],
      "stateMutability": "nonpayable",
      "type": "function"
    },
    {
      "inputs": [
        {
          "internalType": "uint256",
          "name": "_dao_id",
          "type": "uint256"
        },
        {
          "internalType": "string",
          "name": "_dao_wallet",
          "type": "string"
        },
        {
          "internalType": "string",
          "name": "_dao_uri",
          "type": "string"
        }
      ],
      "name": "set_dao",
      "outputs": [],
      "stateMutability": "nonpayable",
      "type": "function"
    },
    {
      "inputs": [
        {
          "internalType": "uint256",
          "name": "_goal_id",
          "type": "uint256"
        },
        {
          "internalType": "string",
          "name": "_goal_uri",
          "type": "string"
        }
      ],
      "name": "set_goal",
      "outputs": [],
      "stateMutability": "nonpayable",
      "type": "function"
    },
    {
      "inputs": [
        {
          "internalType": "uint256",
          "name": "_ideas_id",
          "type": "uint256"
        },
        {
          "internalType": "string",
          "name": "_ideas_uri",
          "type": "string"
        }
      ],
      "name": "set_ideas",
      "outputs": [],
      "stateMutability": "nonpayable",
      "type": "function"
    },
    {
      "inputs": [
        {
          "internalType": "bytes4",
          "name": "interfaceId",
          "type": "bytes4"
        }
      ],
      "name": "supportsInterface",
      "outputs": [
        {
          "internalType": "bool",
          "name": "",
          "type": "bool"
        }
      ],
      "stateMutability": "view",
      "type": "function"
    },
    {
      "inputs": [],
      "name": "symbol",
      "outputs": [
        {
          "internalType": "string",
          "name": "",
          "type": "string"
        }
      ],
      "stateMutability": "view",
      "type": "function"
    },
    {
      "inputs": [
        {
          "internalType": "uint256",
          "name": "tokenId",
          "type": "uint256"
        }
      ],
      "name": "tokenURI",
      "outputs": [
        {
          "internalType": "string",
          "name": "",
          "type": "string"
        }
      ],
      "stateMutability": "view",
      "type": "function"
    },
    {
      "inputs": [
        {
          "internalType": "address",
          "name": "from",
          "type": "address"
        },
        {
          "internalType": "address",
          "name": "to",
          "type": "address"
        },
        {
          "internalType": "uint256",
          "name": "tokenId",
          "type": "uint256"
        }
      ],
      "name": "transferFrom",
      "outputs": [],
      "stateMutability": "nonpayable",
      "type": "function"
    }
  ],
  "bytecode": "0x60806040523480156200001157600080fd5b5060405162004665380380620046658339818101604052810190620000379190620001a3565b818181600090805190602001906200005192919062000075565b5080600190805190602001906200006a92919062000075565b5050505050620003ac565b8280546200008390620002bd565b90600052602060002090601f016020900481019282620000a75760008555620000f3565b82601f10620000c257805160ff1916838001178555620000f3565b82800160010185558215620000f3579182015b82811115620000f2578251825591602001919060010190620000d5565b5b50905062000102919062000106565b5090565b5b808211156200012157600081600090555060010162000107565b5090565b60006200013c620001368462000251565b62000228565b9050828152602081018484840111156200015b576200015a6200038c565b5b6200016884828562000287565b509392505050565b600082601f83011262000188576200018762000387565b5b81516200019a84826020860162000125565b91505092915050565b60008060408385031215620001bd57620001bc62000396565b5b600083015167ffffffffffffffff811115620001de57620001dd62000391565b5b620001ec8582860162000170565b925050602083015167ffffffffffffffff81111562000210576200020f62000391565b5b6200021e8582860162000170565b9150509250929050565b60006200023462000247565b9050620002428282620002f3565b919050565b6000604051905090565b600067ffffffffffffffff8211156200026f576200026e62000358565b5b6200027a826200039b565b9050602081019050919050565b60005b83811015620002a75780820151818401526020810190506200028a565b83811115620002b7576000848401525b50505050565b60006002820490506001821680620002d657607f821691505b60208210811415620002ed57620002ec62000329565b5b50919050565b620002fe826200039b565b810181811067ffffffffffffffff8211171562000320576200031f62000358565b5b80604052505050565b7f4e487b7100000000000000000000000000000000000000000000000000000000600052602260045260246000fd5b7f4e487b7100000000000000000000000000000000000000000000000000000000600052604160045260246000fd5b600080fd5b600080fd5b600080fd5b600080fd5b6000601f19601f8301169050919050565b6142a980620003bc6000396000f3fe608060405234801561001057600080fd5b50600436106102275760003560e01c806370a0823111610130578063a22cb465116100b8578063c29595c51161007c578063c29595c514610727578063c4c2e36414610743578063c87b56dd14610773578063e32acc1a146107a3578063e985e9c5146107d357610227565b8063a22cb46514610685578063aa4cdf2a146106a1578063b88d4fde146106d1578063c04e7430146106ed578063c04fe9781461070957610227565b80638d3d2595116100ff5780638d3d2595146105cb5780638da5cb5b146105fb57806395d89b411461061957806397ee760614610637578063a1ca91781461065557610227565b806370a082311461051f57806371085cab1461054f57806382fcc7321461057f578063881de858146105af57610227565b806327a568b9116101b357806342842e0e1161018257806342842e0e14610442578063468d0c801461045e5780634be7adb51461048f5780635d907da1146104bf5780636352211e146104ef57610227565b806327a568b9146103a457806329b56f60146103d65780632d9cb1ab146103f45780634162169f1461042457610227565b8063109ac970116101fa578063109ac970146102c6578063131d44f2146102f65780631ba44c4c146103265780631e9ac9f51461035857806323b872dd1461038857610227565b806301ffc9a71461022c57806306fdde031461025c578063081812fc1461027a578063095ea7b3146102aa575b600080fd5b61024660048036038101906102419190612fb2565b610803565b6040516102539190613765565b60405180910390f35b6102646108e5565b6040516102719190613780565b60405180910390f35b610294600480360381019061028f9190613129565b610977565b6040516102a191906136dc565b60405180910390f35b6102c460048036038101906102bf9190612f72565b6109fc565b005b6102e060048036038101906102db9190613129565b610b14565b6040516102ed9190613743565b60405180910390f35b610310600480360381019061030b9190613129565b610c84565b60405161031d9190613743565b60405180910390f35b610340600480360381019061033b9190613129565b610df4565b60405161034f939291906139b9565b60405180910390f35b610372600480360381019061036d919061300c565b610ea6565b60405161037f919061396e565b60405180910390f35b6103a2600480360381019061039d9190612e5c565b610f18565b005b6103be60048036038101906103b99190613129565b610f78565b6040516103cd939291906137a2565b60405180910390f35b6103de61113a565b6040516103eb9190613743565b60405180910390f35b61040e600480360381019061040991906130cd565b611275565b60405161041b919061396e565b60405180910390f35b61042c6112ee565b6040516104399190613743565b60405180910390f35b61045c60048036038101906104579190612e5c565b6113e7565b005b61047860048036038101906104739190613129565b611407565b604051610486929190613989565b60405180910390f35b6104a960048036038101906104a4919061323d565b6114b3565b6040516104b69190613743565b60405180910390f35b6104d960048036038101906104d49190613129565b611645565b6040516104e69190613780565b60405180910390f35b61050960048036038101906105049190613129565b6116ed565b60405161051691906136dc565b60405180910390f35b61053960048036038101906105349190612def565b61179f565b604051610546919061396e565b60405180910390f35b610569600480360381019061056491906130cd565b611857565b604051610576919061396e565b60405180910390f35b6105996004803603810190610594919061327d565b6118d0565b6040516105a6919061396e565b60405180910390f35b6105c960048036038101906105c491906131b2565b61195a565b005b6105e560048036038101906105e09190613129565b6119b5565b6040516105f29190613780565b60405180910390f35b610603611a5d565b60405161061091906136dc565b60405180910390f35b610621611a83565b60405161062e9190613780565b60405180910390f35b61063f611b15565b60405161064c9190613743565b60405180910390f35b61066f600480360381019061066a919061300c565b611c50565b60405161067c919061396e565b60405180910390f35b61069f600480360381019061069a9190612f32565b611cc2565b005b6106bb60048036038101906106b6919061300c565b611cd8565b6040516106c8919061396e565b60405180910390f35b6106eb60048036038101906106e69190612eaf565b611d60565b005b61070760048036038101906107029190613156565b611dc2565b005b610711611df1565b60405161071e9190613743565b60405180910390f35b610741600480360381019061073c9190613156565b611f2c565b005b61075d60048036038101906107589190613055565b611f5b565b60405161076a919061396e565b60405180910390f35b61078d60048036038101906107889190613129565b61203f565b60405161079a9190613780565b60405180910390f35b6107bd60048036038101906107b89190613129565b6120e6565b6040516107ca9190613780565b60405180910390f35b6107ed60048036038101906107e89190612e1c565b61218e565b6040516107fa9190613765565b60405180910390f35b60007f80ac58cd000000000000000000000000000000000000000000000000000000007bffffffffffffffffffffffffffffffffffffffffffffffffffffffff1916827bffffffffffffffffffffffffffffffffffffffffffffffffffffffff191614806108ce57507f5b5e139f000000000000000000000000000000000000000000000000000000007bffffffffffffffffffffffffffffffffffffffffffffffffffffffff1916827bffffffffffffffffffffffffffffffffffffffffffffffffffffffff1916145b806108de57506108dd82612222565b5b9050919050565b6060600080546108f490613c9c565b80601f016020809104026020016040519081016040528092919081815260200182805461092090613c9c565b801561096d5780601f106109425761010080835404028352916020019161096d565b820191906000526020600020905b81548152906001019060200180831161095057829003601f168201915b5050505050905090565b60006109828261228c565b6109c1576040517f08c379a00000000000000000000000000000000000000000000000000000000081526004016109b8906138ee565b60405180910390fd5b6004600083815260200190815260200160002060009054906101000a900473ffffffffffffffffffffffffffffffffffffffff169050919050565b6000610a07826116ed565b90508073ffffffffffffffffffffffffffffffffffffffff168373ffffffffffffffffffffffffffffffffffffffff161415610a78576040517f08c379a0000000000000000000000000000000000000000000000000000000008152600401610a6f9061392e565b60405180910390fd5b8073ffffffffffffffffffffffffffffffffffffffff16610a976122f8565b73ffffffffffffffffffffffffffffffffffffffff161480610ac65750610ac581610ac06122f8565b61218e565b5b610b05576040517f08c379a0000000000000000000000000000000000000000000000000000000008152600401610afc9061388e565b60405180910390fd5b610b0f8383612300565b505050565b6060600060075467ffffffffffffffff811115610b3457610b33613e35565b5b604051908082528060200260200182016040528015610b6757816020015b6060815260200190600190039081610b525790505b509050600080600090505b600754811015610c795784600b6000838152602001908152602001600020600001541415610c6657600b60008281526020019081526020016000206001018054610bbb90613c9c565b80601f0160208091040260200160405190810160405280929190818152602001828054610be790613c9c565b8015610c345780601f10610c0957610100808354040283529160200191610c34565b820191906000526020600020905b815481529060010190602001808311610c1757829003601f168201915b5050505050838381518110610c4c57610c4b613e06565b5b60200260200101819052508180610c6290613cff565b9250505b8080610c7190613cff565b915050610b72565b508192505050919050565b6060600060085467ffffffffffffffff811115610ca457610ca3613e35565b5b604051908082528060200260200182016040528015610cd757816020015b6060815260200190600190039081610cc25790505b509050600080600090505b600854811015610de95784600c6000838152602001908152602001600020600001541415610dc857600c60008281526020019081526020016000206001018054610d2b90613c9c565b80601f0160208091040260200160405190810160405280929190818152602001828054610d5790613c9c565b8015610da45780601f10610d7957610100808354040283529160200191610da4565b820191906000526020600020905b815481529060010190602001808311610d8757829003601f168201915b5050505050838381518110610dbc57610dbb613e06565b5b60200260200101819052505b8180610dd390613cff565b9250508080610de190613cff565b915050610ce2565b508192505050919050565b600d602052806000526040600020600091509050806000015490806001015490806002018054610e2390613c9c565b80601f0160208091040260200160405190810160405280929190818152602001828054610e4f90613c9c565b8015610e9c5780601f10610e7157610100808354040283529160200191610e9c565b820191906000526020600020905b815481529060010190602001808311610e7f57829003601f168201915b5050505050905083565b600080600090505b600754811015610f0d578280519060200120600b6000838152602001908152602001600020600101604051610ee391906136a1565b60405180910390201415610efa5780915050610f13565b8080610f0590613cff565b915050610eae565b50600090505b919050565b610f29610f236122f8565b826123b9565b610f68576040517f08c379a0000000000000000000000000000000000000000000000000000000008152600401610f5f9061394e565b60405180910390fd5b610f73838383612497565b505050565b600a602052806000526040600020600091509050806000018054610f9b90613c9c565b80601f0160208091040260200160405190810160405280929190818152602001828054610fc790613c9c565b80156110145780601f10610fe957610100808354040283529160200191611014565b820191906000526020600020905b815481529060010190602001808311610ff757829003601f168201915b50505050509080600101805461102990613c9c565b80601f016020809104026020016040519081016040528092919081815260200182805461105590613c9c565b80156110a25780601f10611077576101008083540402835291602001916110a2565b820191906000526020600020905b81548152906001019060200180831161108557829003601f168201915b5050505050908060020180546110b790613c9c565b80601f01602080910402602001604051908101604052809291908181526020018280546110e390613c9c565b80156111305780601f1061110557610100808354040283529160200191611130565b820191906000526020600020905b81548152906001019060200180831161111357829003601f168201915b5050505050905083565b6060600060075467ffffffffffffffff81111561115a57611159613e35565b5b60405190808252806020026020018201604052801561118d57816020015b60608152602001906001900390816111785790505b50905060005b60075481101561126d57600b600082815260200190815260200160002060010180546111be90613c9c565b80601f01602080910402602001604051908101604052809291908181526020018280546111ea90613c9c565b80156112375780601f1061120c57610100808354040283529160200191611237565b820191906000526020600020905b81548152906001019060200180831161121a57829003601f168201915b505050505082828151811061124f5761124e613e06565b5b6020026020010181905250808061126590613cff565b915050611193565b508091505090565b6000604051806040016040528083815260200184815250600c600060085481526020019081526020016000206000820151816000015560208201518160010190805190602001906112c7929190612c03565b50905050600860008154809291906112de90613cff565b9190505550600854905092915050565b60606113646040518060400160405280600981526020017f77616c6c657420233100000000000000000000000000000000000000000000008152506040518060400160405280600f81526020017f44414f206d657461646174612023310000000000000000000000000000000000815250611f5b565b506113d96040518060400160405280600981526020017f77616c6c657420233200000000000000000000000000000000000000000000008152506040518060400160405280600f81526020017f44414f206d657461646174612023320000000000000000000000000000000000815250611f5b565b506113e2611df1565b905090565b61140283838360405180602001604052806000815250611d60565b505050565b600c60205280600052604060002060009150905080600001549080600101805461143090613c9c565b80601f016020809104026020016040519081016040528092919081815260200182805461145c90613c9c565b80156114a95780601f1061147e576101008083540402835291602001916114a9565b820191906000526020600020905b81548152906001019060200180831161148c57829003601f168201915b5050505050905082565b6060600060095467ffffffffffffffff8111156114d3576114d2613e35565b5b60405190808252806020026020018201604052801561150657816020015b60608152602001906001900390816114f15790505b509050600080600090505b6009548110156116395785600d600083815260200190815260200160002060000154148015611555575084600d600083815260200190815260200160002060010154145b1561161857600d6000828152602001908152602001600020600201805461157b90613c9c565b80601f01602080910402602001604051908101604052809291908181526020018280546115a790613c9c565b80156115f45780601f106115c9576101008083540402835291602001916115f4565b820191906000526020600020905b8154815290600101906020018083116115d757829003601f168201915b505050505083838151811061160c5761160b613e06565b5b60200260200101819052505b818061162390613cff565b925050808061163190613cff565b915050611511565b50819250505092915050565b6060600a6000838152602001908152602001600020600101805461166890613c9c565b80601f016020809104026020016040519081016040528092919081815260200182805461169490613c9c565b80156116e15780601f106116b6576101008083540402835291602001916116e1565b820191906000526020600020905b8154815290600101906020018083116116c457829003601f168201915b50505050509050919050565b6000806002600084815260200190815260200160002060009054906101000a900473ffffffffffffffffffffffffffffffffffffffff169050600073ffffffffffffffffffffffffffffffffffffffff168173ffffffffffffffffffffffffffffffffffffffff161415611796576040517f08c379a000000000000000000000000000000000000000000000000000000000815260040161178d906138ce565b60405180910390fd5b80915050919050565b60008073ffffffffffffffffffffffffffffffffffffffff168273ffffffffffffffffffffffffffffffffffffffff161415611810576040517f08c379a0000000000000000000000000000000000000000000000000000000008152600401611807906138ae565b60405180910390fd5b600360008373ffffffffffffffffffffffffffffffffffffffff1673ffffffffffffffffffffffffffffffffffffffff168152602001908152602001600020549050919050565b6000604051806040016040528083815260200184815250600b600060075481526020019081526020016000206000820151816000015560208201518160010190805190602001906118a9929190612c03565b50905050600760008154809291906118c090613cff565b9190505550600754905092915050565b6000604051806060016040528085815260200184815260200183815250600d6000600854815260200190815260200160002060008201518160000155602082015181600101556040820151816002019080519060200190611932929190612c03565b509050506008600081548092919061194990613cff565b919050555060085490509392505050565b81600a60008581526020019081526020016000206000019080519060200190611984929190612c03565b5080600a600085815260200190815260200160002060010190805190602001906119af929190612c03565b50505050565b6060600c600083815260200190815260200160002060010180546119d890613c9c565b80601f0160208091040260200160405190810160405280929190818152602001828054611a0490613c9c565b8015611a515780601f10611a2657610100808354040283529160200191611a51565b820191906000526020600020905b815481529060010190602001808311611a3457829003601f168201915b50505050509050919050565b600e60009054906101000a900473ffffffffffffffffffffffffffffffffffffffff1681565b606060018054611a9290613c9c565b80601f0160208091040260200160405190810160405280929190818152602001828054611abe90613c9c565b8015611b0b5780601f10611ae057610100808354040283529160200191611b0b565b820191906000526020600020905b815481529060010190602001808311611aee57829003601f168201915b5050505050905090565b6060600060085467ffffffffffffffff811115611b3557611b34613e35565b5b604051908082528060200260200182016040528015611b6857816020015b6060815260200190600190039081611b535790505b50905060005b600854811015611c4857600c60008281526020019081526020016000206001018054611b9990613c9c565b80601f0160208091040260200160405190810160405280929190818152602001828054611bc590613c9c565b8015611c125780601f10611be757610100808354040283529160200191611c12565b820191906000526020600020905b815481529060010190602001808311611bf557829003601f168201915b5050505050828281518110611c2a57611c29613e06565b5b60200260200101819052508080611c4090613cff565b915050611b6e565b508091505090565b600080600090505b600854811015611cb7578280519060200120600c6000838152602001908152602001600020600101604051611c8d91906136a1565b60405180910390201415611ca45780915050611cbd565b8080611caf90613cff565b915050611c58565b50600090505b919050565b611cd4611ccd6122f8565b83836126fe565b5050565b600080600090505b600854811015611d55578280519060200120600c6000838152602001908152602001600020600101604051611d1591906136a1565b60405180910390201415611d4257600c600082815260200190815260200160002060000154915050611d5b565b8080611d4d90613cff565b915050611ce0565b50600090505b919050565b611d71611d6b6122f8565b836123b9565b611db0576040517f08c379a0000000000000000000000000000000000000000000000000000000008152600401611da79061394e565b60405180910390fd5b611dbc8484848461286b565b50505050565b80600c60008481526020019081526020016000206001019080519060200190611dec929190612c03565b505050565b6060600060065467ffffffffffffffff811115611e1157611e10613e35565b5b604051908082528060200260200182016040528015611e4457816020015b6060815260200190600190039081611e2f5790505b50905060005b600654811015611f2457600a60008281526020019081526020016000206001018054611e7590613c9c565b80601f0160208091040260200160405190810160405280929190818152602001828054611ea190613c9c565b8015611eee5780601f10611ec357610100808354040283529160200191611eee565b820191906000526020600020905b815481529060010190602001808311611ed157829003601f168201915b5050505050828281518110611f0657611f05613e06565b5b60200260200101819052508080611f1c90613cff565b915050611e4a565b508091505090565b80600b60008481526020019081526020016000206001019080519060200190611f56929190612c03565b505050565b600060405180606001604052808481526020018381526020016040518060400160405280600581526020017f46616c7365000000000000000000000000000000000000000000000000000000815250815250600a600060065481526020019081526020016000206000820151816000019080519060200190611fde929190612c03565b506020820151816001019080519060200190611ffb929190612c03565b506040820151816002019080519060200190612018929190612c03565b509050506006600081548092919061202f90613cff565b9190505550600654905092915050565b606061204a8261228c565b612089576040517f08c379a00000000000000000000000000000000000000000000000000000000081526004016120809061390e565b60405180910390fd5b60006120936128c7565b905060008151116120b357604051806020016040528060008152506120de565b806120bd846128de565b6040516020016120ce9291906136b8565b6040516020818303038152906040525b915050919050565b6060600b6000838152602001908152602001600020600101805461210990613c9c565b80601f016020809104026020016040519081016040528092919081815260200182805461213590613c9c565b80156121825780601f1061215757610100808354040283529160200191612182565b820191906000526020600020905b81548152906001019060200180831161216557829003601f168201915b50505050509050919050565b6000600560008473ffffffffffffffffffffffffffffffffffffffff1673ffffffffffffffffffffffffffffffffffffffff16815260200190815260200160002060008373ffffffffffffffffffffffffffffffffffffffff1673ffffffffffffffffffffffffffffffffffffffff16815260200190815260200160002060009054906101000a900460ff16905092915050565b60007f01ffc9a7000000000000000000000000000000000000000000000000000000007bffffffffffffffffffffffffffffffffffffffffffffffffffffffff1916827bffffffffffffffffffffffffffffffffffffffffffffffffffffffff1916149050919050565b60008073ffffffffffffffffffffffffffffffffffffffff166002600084815260200190815260200160002060009054906101000a900473ffffffffffffffffffffffffffffffffffffffff1673ffffffffffffffffffffffffffffffffffffffff1614159050919050565b600033905090565b816004600083815260200190815260200160002060006101000a81548173ffffffffffffffffffffffffffffffffffffffff021916908373ffffffffffffffffffffffffffffffffffffffff160217905550808273ffffffffffffffffffffffffffffffffffffffff16612373836116ed565b73ffffffffffffffffffffffffffffffffffffffff167f8c5be1e5ebec7d5bd14f71427d1e84f3dd0314c0f7b2291e5b200ac8c7c3b92560405160405180910390a45050565b60006123c48261228c565b612403576040517f08c379a00000000000000000000000000000000000000000000000000000000081526004016123fa9061386e565b60405180910390fd5b600061240e836116ed565b90508073ffffffffffffffffffffffffffffffffffffffff168473ffffffffffffffffffffffffffffffffffffffff161480612450575061244f818561218e565b5b8061248e57508373ffffffffffffffffffffffffffffffffffffffff1661247684610977565b73ffffffffffffffffffffffffffffffffffffffff16145b91505092915050565b8273ffffffffffffffffffffffffffffffffffffffff166124b7826116ed565b73ffffffffffffffffffffffffffffffffffffffff161461250d576040517f08c379a00000000000000000000000000000000000000000000000000000000081526004016125049061380e565b60405180910390fd5b600073ffffffffffffffffffffffffffffffffffffffff168273ffffffffffffffffffffffffffffffffffffffff16141561257d576040517f08c379a00000000000000000000000000000000000000000000000000000000081526004016125749061382e565b60405180910390fd5b612588838383612a3f565b612593600082612300565b6001600360008573ffffffffffffffffffffffffffffffffffffffff1673ffffffffffffffffffffffffffffffffffffffff16815260200190815260200160002060008282546125e39190613bb2565b925050819055506001600360008473ffffffffffffffffffffffffffffffffffffffff1673ffffffffffffffffffffffffffffffffffffffff168152602001908152602001600020600082825461263a9190613b2b565b92505081905550816002600083815260200190815260200160002060006101000a81548173ffffffffffffffffffffffffffffffffffffffff021916908373ffffffffffffffffffffffffffffffffffffffff160217905550808273ffffffffffffffffffffffffffffffffffffffff168473ffffffffffffffffffffffffffffffffffffffff167fddf252ad1be2c89b69c2b068fc378daa952ba7f163c4a11628f55a4df523b3ef60405160405180910390a46126f9838383612a44565b505050565b8173ffffffffffffffffffffffffffffffffffffffff168373ffffffffffffffffffffffffffffffffffffffff16141561276d576040517f08c379a00000000000000000000000000000000000000000000000000000000081526004016127649061384e565b60405180910390fd5b80600560008573ffffffffffffffffffffffffffffffffffffffff1673ffffffffffffffffffffffffffffffffffffffff16815260200190815260200160002060008473ffffffffffffffffffffffffffffffffffffffff1673ffffffffffffffffffffffffffffffffffffffff16815260200190815260200160002060006101000a81548160ff0219169083151502179055508173ffffffffffffffffffffffffffffffffffffffff168373ffffffffffffffffffffffffffffffffffffffff167f17307eab39ab6107e8899845ad3d59bd9653f200f220920489ca2b5937696c318360405161285e9190613765565b60405180910390a3505050565b612876848484612497565b61288284848484612a49565b6128c1576040517f08c379a00000000000000000000000000000000000000000000000000000000081526004016128b8906137ee565b60405180910390fd5b50505050565b606060405180602001604052806000815250905090565b60606000821415612926576040518060400160405280600181526020017f30000000000000000000000000000000000000000000000000000000000000008152509050612a3a565b600082905060005b6000821461295857808061294190613cff565b915050600a826129519190613b81565b915061292e565b60008167ffffffffffffffff81111561297457612973613e35565b5b6040519080825280601f01601f1916602001820160405280156129a65781602001600182028036833780820191505090505b5090505b60008514612a33576001826129bf9190613bb2565b9150600a856129ce9190613d48565b60306129da9190613b2b565b60f81b8183815181106129f0576129ef613e06565b5b60200101907effffffffffffffffffffffffffffffffffffffffffffffffffffffffffffff1916908160001a905350600a85612a2c9190613b81565b94506129aa565b8093505050505b919050565b505050565b505050565b6000612a6a8473ffffffffffffffffffffffffffffffffffffffff16612be0565b15612bd3578373ffffffffffffffffffffffffffffffffffffffff1663150b7a02612a936122f8565b8786866040518563ffffffff1660e01b8152600401612ab594939291906136f7565b602060405180830381600087803b158015612acf57600080fd5b505af1925050508015612b0057506040513d601f19601f82011682018060405250810190612afd9190612fdf565b60015b612b83573d8060008114612b30576040519150601f19603f3d011682016040523d82523d6000602084013e612b35565b606091505b50600081511415612b7b576040517f08c379a0000000000000000000000000000000000000000000000000000000008152600401612b72906137ee565b60405180910390fd5b805181602001fd5b63150b7a0260e01b7bffffffffffffffffffffffffffffffffffffffffffffffffffffffff1916817bffffffffffffffffffffffffffffffffffffffffffffffffffffffff191614915050612bd8565b600190505b949350505050565b6000808273ffffffffffffffffffffffffffffffffffffffff163b119050919050565b828054612c0f90613c9c565b90600052602060002090601f016020900481019282612c315760008555612c78565b82601f10612c4a57805160ff1916838001178555612c78565b82800160010185558215612c78579182015b82811115612c77578251825591602001919060010190612c5c565b5b509050612c859190612c89565b5090565b5b80821115612ca2576000816000905550600101612c8a565b5090565b6000612cb9612cb484613a1c565b6139f7565b905082815260208101848484011115612cd557612cd4613e69565b5b612ce0848285613c5a565b509392505050565b6000612cfb612cf684613a4d565b6139f7565b905082815260208101848484011115612d1757612d16613e69565b5b612d22848285613c5a565b509392505050565b600081359050612d3981614217565b92915050565b600081359050612d4e8161422e565b92915050565b600081359050612d6381614245565b92915050565b600081519050612d7881614245565b92915050565b600082601f830112612d9357612d92613e64565b5b8135612da3848260208601612ca6565b91505092915050565b600082601f830112612dc157612dc0613e64565b5b8135612dd1848260208601612ce8565b91505092915050565b600081359050612de98161425c565b92915050565b600060208284031215612e0557612e04613e73565b5b6000612e1384828501612d2a565b91505092915050565b60008060408385031215612e3357612e32613e73565b5b6000612e4185828601612d2a565b9250506020612e5285828601612d2a565b9150509250929050565b600080600060608486031215612e7557612e74613e73565b5b6000612e8386828701612d2a565b9350506020612e9486828701612d2a565b9250506040612ea586828701612dda565b9150509250925092565b60008060008060808587031215612ec957612ec8613e73565b5b6000612ed787828801612d2a565b9450506020612ee887828801612d2a565b9350506040612ef987828801612dda565b925050606085013567ffffffffffffffff811115612f1a57612f19613e6e565b5b612f2687828801612d7e565b91505092959194509250565b60008060408385031215612f4957612f48613e73565b5b6000612f5785828601612d2a565b9250506020612f6885828601612d3f565b9150509250929050565b60008060408385031215612f8957612f88613e73565b5b6000612f9785828601612d2a565b9250506020612fa885828601612dda565b9150509250929050565b600060208284031215612fc857612fc7613e73565b5b6000612fd684828501612d54565b91505092915050565b600060208284031215612ff557612ff4613e73565b5b600061300384828501612d69565b91505092915050565b60006020828403121561302257613021613e73565b5b600082013567ffffffffffffffff8111156130405761303f613e6e565b5b61304c84828501612dac565b91505092915050565b6000806040838503121561306c5761306b613e73565b5b600083013567ffffffffffffffff81111561308a57613089613e6e565b5b61309685828601612dac565b925050602083013567ffffffffffffffff8111156130b7576130b6613e6e565b5b6130c385828601612dac565b9150509250929050565b600080604083850312156130e4576130e3613e73565b5b600083013567ffffffffffffffff81111561310257613101613e6e565b5b61310e85828601612dac565b925050602061311f85828601612dda565b9150509250929050565b60006020828403121561313f5761313e613e73565b5b600061314d84828501612dda565b91505092915050565b6000806040838503121561316d5761316c613e73565b5b600061317b85828601612dda565b925050602083013567ffffffffffffffff81111561319c5761319b613e6e565b5b6131a885828601612dac565b9150509250929050565b6000806000606084860312156131cb576131ca613e73565b5b60006131d986828701612dda565b935050602084013567ffffffffffffffff8111156131fa576131f9613e6e565b5b61320686828701612dac565b925050604084013567ffffffffffffffff81111561322757613226613e6e565b5b61323386828701612dac565b9150509250925092565b6000806040838503121561325457613253613e73565b5b600061326285828601612dda565b925050602061327385828601612dda565b9150509250929050565b60008060006060848603121561329657613295613e73565b5b60006132a486828701612dda565b93505060206132b586828701612dda565b925050604084013567ffffffffffffffff8111156132d6576132d5613e6e565b5b6132e286828701612dac565b9150509250925092565b60006132f8838361344b565b905092915050565b61330981613be6565b82525050565b600061331a82613aa3565b6133248185613ad1565b93508360208202850161333685613a7e565b8060005b85811015613372578484038952815161335385826132ec565b945061335e83613ac4565b925060208a0199505060018101905061333a565b50829750879550505050505092915050565b61338d81613bf8565b82525050565b600061339e82613aae565b6133a88185613ae2565b93506133b8818560208601613c69565b6133c181613e78565b840191505092915050565b600081546133d981613c9c565b6133e38186613af3565b945060018216600081146133fe576001811461340f57613442565b60ff19831686528186019350613442565b61341885613a8e565b60005b8381101561343a5781548189015260018201915060208101905061341b565b838801955050505b50505092915050565b600061345682613ab9565b6134608185613afe565b9350613470818560208601613c69565b61347981613e78565b840191505092915050565b600061348f82613ab9565b6134998185613b0f565b93506134a9818560208601613c69565b6134b281613e78565b840191505092915050565b60006134c882613ab9565b6134d28185613b20565b93506134e2818560208601613c69565b80840191505092915050565b60006134fb603283613b0f565b915061350682613e89565b604082019050919050565b600061351e602583613b0f565b915061352982613ed8565b604082019050919050565b6000613541602483613b0f565b915061354c82613f27565b604082019050919050565b6000613564601983613b0f565b915061356f82613f76565b602082019050919050565b6000613587602c83613b0f565b915061359282613f9f565b604082019050919050565b60006135aa603883613b0f565b91506135b582613fee565b604082019050919050565b60006135cd602a83613b0f565b91506135d88261403d565b604082019050919050565b60006135f0602983613b0f565b91506135fb8261408c565b604082019050919050565b6000613613602c83613b0f565b915061361e826140db565b604082019050919050565b6000613636602f83613b0f565b91506136418261412a565b604082019050919050565b6000613659602183613b0f565b915061366482614179565b604082019050919050565b600061367c603183613b0f565b9150613687826141c8565b604082019050919050565b61369b81613c50565b82525050565b60006136ad82846133cc565b915081905092915050565b60006136c482856134bd565b91506136d082846134bd565b91508190509392505050565b60006020820190506136f16000830184613300565b92915050565b600060808201905061370c6000830187613300565b6137196020830186613300565b6137266040830185613692565b81810360608301526137388184613393565b905095945050505050565b6000602082019050818103600083015261375d818461330f565b905092915050565b600060208201905061377a6000830184613384565b92915050565b6000602082019050818103600083015261379a8184613484565b905092915050565b600060608201905081810360008301526137bc8186613484565b905081810360208301526137d08185613484565b905081810360408301526137e48184613484565b9050949350505050565b60006020820190508181036000830152613807816134ee565b9050919050565b6000602082019050818103600083015261382781613511565b9050919050565b6000602082019050818103600083015261384781613534565b9050919050565b6000602082019050818103600083015261386781613557565b9050919050565b600060208201905081810360008301526138878161357a565b9050919050565b600060208201905081810360008301526138a78161359d565b9050919050565b600060208201905081810360008301526138c7816135c0565b9050919050565b600060208201905081810360008301526138e7816135e3565b9050919050565b6000602082019050818103600083015261390781613606565b9050919050565b6000602082019050818103600083015261392781613629565b9050919050565b600060208201905081810360008301526139478161364c565b9050919050565b600060208201905081810360008301526139678161366f565b9050919050565b60006020820190506139836000830184613692565b92915050565b600060408201905061399e6000830185613692565b81810360208301526139b08184613484565b90509392505050565b60006060820190506139ce6000830186613692565b6139db6020830185613692565b81810360408301526139ed8184613484565b9050949350505050565b6000613a01613a12565b9050613a0d8282613cce565b919050565b6000604051905090565b600067ffffffffffffffff821115613a3757613a36613e35565b5b613a4082613e78565b9050602081019050919050565b600067ffffffffffffffff821115613a6857613a67613e35565b5b613a7182613e78565b9050602081019050919050565b6000819050602082019050919050565b60008190508160005260206000209050919050565b600081519050919050565b600081519050919050565b600081519050919050565b6000602082019050919050565b600082825260208201905092915050565b600082825260208201905092915050565b600081905092915050565b600082825260208201905092915050565b600082825260208201905092915050565b600081905092915050565b6000613b3682613c50565b9150613b4183613c50565b9250827fffffffffffffffffffffffffffffffffffffffffffffffffffffffffffffffff03821115613b7657613b75613d79565b5b828201905092915050565b6000613b8c82613c50565b9150613b9783613c50565b925082613ba757613ba6613da8565b5b828204905092915050565b6000613bbd82613c50565b9150613bc883613c50565b925082821015613bdb57613bda613d79565b5b828203905092915050565b6000613bf182613c30565b9050919050565b60008115159050919050565b60007fffffffff0000000000000000000000000000000000000000000000000000000082169050919050565b600073ffffffffffffffffffffffffffffffffffffffff82169050919050565b6000819050919050565b82818337600083830152505050565b60005b83811015613c87578082015181840152602081019050613c6c565b83811115613c96576000848401525b50505050565b60006002820490506001821680613cb457607f821691505b60208210811415613cc857613cc7613dd7565b5b50919050565b613cd782613e78565b810181811067ffffffffffffffff82111715613cf657613cf5613e35565b5b80604052505050565b6000613d0a82613c50565b91507fffffffffffffffffffffffffffffffffffffffffffffffffffffffffffffffff821415613d3d57613d3c613d79565b5b600182019050919050565b6000613d5382613c50565b9150613d5e83613c50565b925082613d6e57613d6d613da8565b5b828206905092915050565b7f4e487b7100000000000000000000000000000000000000000000000000000000600052601160045260246000fd5b7f4e487b7100000000000000000000000000000000000000000000000000000000600052601260045260246000fd5b7f4e487b7100000000000000000000000000000000000000000000000000000000600052602260045260246000fd5b7f4e487b7100000000000000000000000000000000000000000000000000000000600052603260045260246000fd5b7f4e487b7100000000000000000000000000000000000000000000000000000000600052604160045260246000fd5b600080fd5b600080fd5b600080fd5b600080fd5b6000601f19601f8301169050919050565b7f4552433732313a207472616e7366657220746f206e6f6e20455243373231526560008201527f63656976657220696d706c656d656e7465720000000000000000000000000000602082015250565b7f4552433732313a207472616e736665722066726f6d20696e636f72726563742060008201527f6f776e6572000000000000000000000000000000000000000000000000000000602082015250565b7f4552433732313a207472616e7366657220746f20746865207a65726f2061646460008201527f7265737300000000000000000000000000000000000000000000000000000000602082015250565b7f4552433732313a20617070726f766520746f2063616c6c657200000000000000600082015250565b7f4552433732313a206f70657261746f7220717565727920666f72206e6f6e657860008201527f697374656e7420746f6b656e0000000000000000000000000000000000000000602082015250565b7f4552433732313a20617070726f76652063616c6c6572206973206e6f74206f7760008201527f6e6572206e6f7220617070726f76656420666f7220616c6c0000000000000000602082015250565b7f4552433732313a2062616c616e636520717565727920666f7220746865207a6560008201527f726f206164647265737300000000000000000000000000000000000000000000602082015250565b7f4552433732313a206f776e657220717565727920666f72206e6f6e657869737460008201527f656e7420746f6b656e0000000000000000000000000000000000000000000000602082015250565b7f4552433732313a20617070726f76656420717565727920666f72206e6f6e657860008201527f697374656e7420746f6b656e0000000000000000000000000000000000000000602082015250565b7f4552433732314d657461646174613a2055524920717565727920666f72206e6f60008201527f6e6578697374656e7420746f6b656e0000000000000000000000000000000000602082015250565b7f4552433732313a20617070726f76616c20746f2063757272656e74206f776e6560008201527f7200000000000000000000000000000000000000000000000000000000000000602082015250565b7f4552433732313a207472616e736665722063616c6c6572206973206e6f74206f60008201527f776e6572206e6f7220617070726f766564000000000000000000000000000000602082015250565b61422081613be6565b811461422b57600080fd5b50565b61423781613bf8565b811461424257600080fd5b50565b61424e81613c04565b811461425957600080fd5b50565b61426581613c50565b811461427057600080fd5b5056fea2646970667358221220fb50679bd3d7d3991e52e256d3377cf3dde690d1a129d71ffa823f773dd4e8aa64736f6c63430008060033",
  "linkReferences": {},
  "deployedLinkReferences": {}
}